{
  "contractName": "Matr",
  "abi": [
    {
      "constant": true,
      "inputs": [],
      "name": "randSalt",
      "outputs": [
        {
          "name": "",
          "type": "uint256"
        }
      ],
      "payable": false,
      "stateMutability": "view",
      "type": "function",
      "signature": "0xb634ed09"
    },
    {
      "constant": true,
      "inputs": [],
      "name": "bob",
      "outputs": [
        {
          "name": "x",
          "type": "uint256"
        },
        {
          "name": "y",
          "type": "uint256"
        }
      ],
      "payable": false,
      "stateMutability": "view",
      "type": "function",
      "signature": "0xc09cec77"
    },
    {
      "constant": true,
      "inputs": [
        {
          "name": "",
          "type": "uint256"
        }
      ],
      "name": "phones",
      "outputs": [
        {
          "name": "x",
          "type": "uint256"
        },
        {
          "name": "y",
          "type": "uint256"
        }
      ],
      "payable": false,
      "stateMutability": "view",
      "type": "function",
      "signature": "0xf3730653"
    },
    {
      "constant": true,
      "inputs": [
        {
          "name": "",
          "type": "address"
        }
      ],
      "name": "steps",
      "outputs": [
        {
          "name": "",
          "type": "uint256"
        }
      ],
      "payable": false,
      "stateMutability": "view",
      "type": "function",
      "signature": "0xf3eafc0e"
    },
    {
      "constant": false,
      "inputs": [
        {
          "name": "phoneNum",
          "type": "uint256"
        }
      ],
      "name": "Init",
      "outputs": [],
      "payable": false,
      "stateMutability": "nonpayable",
      "type": "function",
      "signature": "0x387d06ac"
    },
    {
      "constant": false,
      "inputs": [
        {
          "name": "luckyNum",
          "type": "uint256"
        }
      ],
      "name": "toss",
      "outputs": [
        {
          "name": "num",
          "type": "uint256"
        }
      ],
      "payable": true,
      "stateMutability": "payable",
      "type": "function",
      "signature": "0x9f95250c"
    },
    {
      "constant": false,
      "inputs": [
        {
          "name": "op",
          "type": "string"
        }
      ],
      "name": "move",
      "outputs": [
        {
          "name": "win",
          "type": "bool"
        }
      ],
      "payable": false,
      "stateMutability": "nonpayable",
      "type": "function",
      "signature": "0x0bfb0697"
    }
  ],
  "bytecode": "0x6080604052600080556000600155600060045534801561001e57600080fd5b5061104b8061002e6000396000f300608060405260043610610083576000357c0100000000000000000000000000000000000000000000000000000000900463ffffffff1680630bfb069714610088578063387d06ac146101095780639f95250c14610136578063b634ed091461016a578063c09cec7714610195578063f3730653146101c7578063f3eafc0e1461020f575b600080fd5b34801561009457600080fd5b506100ef600480360381019080803590602001908201803590602001908080601f0160208091040260200160405190810160405280939291908181526020018383808284378201915050505050509192919290505050610266565b604051808215151515815260200191505060405180910390f35b34801561011557600080fd5b5061013460048036038101908080359060200190929190505050610313565b005b61015460048036038101908080359060200190929190505050610587565b6040518082815260200191505060405180910390f35b34801561017657600080fd5b5061017f610603565b6040518082815260200191505060405180910390f35b3480156101a157600080fd5b506101aa610609565b604051808381526020018281526020019250505060405180910390f35b3480156101d357600080fd5b506101f26004803603810190808035906020019092919050505061061b565b604051808381526020018281526020019250505060405180910390f35b34801561021b57600080fd5b50610250600480360381019080803573ffffffffffffffffffffffffffffffffffffffff16906020019092919050505061063f565b6040518082815260200191505060405180910390f35b60008060008061027585610657565b151561027d57fe5b6000600760003373ffffffffffffffffffffffffffffffffffffffff1673ffffffffffffffffffffffffffffffffffffffff168152602001908152602001600020819055506102cb856108e5565b15156102d357fe5b6102db610c66565b80935081945050508215156102f3576000935061030b565b6001600454038214905061030681610ce8565b600193505b505050919050565b6000806000610320611005565b600093505b8484101561039857610339600b6000610d5d565b9250610347600b6000610d5d565b91506040805190810160405280848152602001838152509050806003600086815260200190815260200160002060008201518160000155602082015181600101559050508380600101945050610325565b8460048190555060016002600b8115156103ae57fe5b04016005600001819055506005600001546005600101819055506001600260007f6c000000000000000000000000000000000000000000000000000000000000007effffffffffffffffffffffffffffffffffffffffffffffffffffffffffffff1916815260200190815260200160002060006101000a81548160ff0219169083151502179055506001600260007f72000000000000000000000000000000000000000000000000000000000000007effffffffffffffffffffffffffffffffffffffffffffffffffffffffffffff1916815260200190815260200160002060006101000a81548160ff0219169083151502179055506001600260007f75000000000000000000000000000000000000000000000000000000000000007effffffffffffffffffffffffffffffffffffffffffffffffffffffffffffff1916815260200190815260200160002060006101000a81548160ff0219169083151502179055506001600260007f64000000000000000000000000000000000000000000000000000000000000007effffffffffffffffffffffffffffffffffffffffffffffffffffffffffffff1916815260200190815260200160002060006101000a81548160ff0219169083151502179055505050505050565b6000670de0b6b3a76400003414151561059f57600080fd5b346001540160018190555060016105b7600684610d5d565b01905080600760003373ffffffffffffffffffffffffffffffffffffffff1673ffffffffffffffffffffffffffffffffffffffff16815260200190815260200160002081905550919050565b60005481565b60058060000154908060010154905082565b60036020528060005260406000206000915090508060000154908060010154905082565b60076020528060005260406000206000915090505481565b600060606000839150600682511180610671575060008251145b1561067f57600092506108de565b600760003373ffffffffffffffffffffffffffffffffffffffff1673ffffffffffffffffffffffffffffffffffffffff1681526020019081526020016000205482511415156106d157600092506108de565b600090505b81518110156108d957600115156002600084848151811015156106f557fe5b9060200101517f010000000000000000000000000000000000000000000000000000000000000090047f0100000000000000000000000000000000000000000000000000000000000000027effffffffffffffffffffffffffffffffffffffffffffffffffffffffffffff19167effffffffffffffffffffffffffffffffffffffffffffffffffffffffffffff1916815260200190815260200160002060009054906101000a900460ff1615151415156107b257600092506108de565b60008111156108cc5781600182038151811015156107cc57fe5b9060200101517f010000000000000000000000000000000000000000000000000000000000000090047f0100000000000000000000000000000000000000000000000000000000000000027effffffffffffffffffffffffffffffffffffffffffffffffffffffffffffff191661089a838381518110151561084a57fe5b9060200101517f010000000000000000000000000000000000000000000000000000000000000090047f010000000000000000000000000000000000000000000000000000000000000002610e31565b7effffffffffffffffffffffffffffffffffffffffffffffffffffffffffffff191614156108cb57600092506108de565b5b80806001019150506106d6565b600192505b5050919050565b600060606000839150600090505b8151811015610c5a577f6c00000000000000000000000000000000000000000000000000000000000000828281518110151561092b57fe5b9060200101517f010000000000000000000000000000000000000000000000000000000000000090047f0100000000000000000000000000000000000000000000000000000000000000027effffffffffffffffffffffffffffffffffffffffffffffffffffffffffffff191614156109d057600060056000015414156109b55760009250610c5f565b60056000016000815480929190600190039190505550610c4d565b7f720000000000000000000000000000000000000000000000000000000000000082828151811015156109ff57fe5b9060200101517f010000000000000000000000000000000000000000000000000000000000000090047f0100000000000000000000000000000000000000000000000000000000000000027effffffffffffffffffffffffffffffffffffffffffffffffffffffffffffff19161415610aa6576001600b036005600001541415610a8c5760009250610c5f565b600560000160008154809291906001019190505550610c4d565b7f75000000000000000000000000000000000000000000000000000000000000008282815181101515610ad557fe5b9060200101517f010000000000000000000000000000000000000000000000000000000000000090047f0100000000000000000000000000000000000000000000000000000000000000027effffffffffffffffffffffffffffffffffffffffffffffffffffffffffffff19161415610b7c576001600b036005600101541415610b625760009250610c5f565b600560010160008154809291906001019190505550610c4d565b7f64000000000000000000000000000000000000000000000000000000000000008282815181101515610bab57fe5b9060200101517f010000000000000000000000000000000000000000000000000000000000000090047f0100000000000000000000000000000000000000000000000000000000000000027effffffffffffffffffffffffffffffffffffffffffffffffffffffffffffff19161415610c4c5760006005600101541415610c355760009250610c5f565b600560010160008154809291906001900391905055505b5b80806001019150506108f3565b600192505b5050919050565b60008060008090505b600454811015610cdb576005600001546003600083815260200190815260200160002060000154148015610cbd57506005600101546003600083815260200190815260200160002060010154145b15610cce5760018192509250610ce3565b8080600101915050610c6f565b600081925092505b509091565b60008090508115610cfd576001549050610d12565b6064605060015402811515610d0e57fe5b0490505b3373ffffffffffffffffffffffffffffffffffffffff166108fc829081150290604051600060405180830381858888f19350505050158015610d58573d6000803e3d6000fd5b505050565b60008060008154809291906001019190505550826002423360005486604051808581526020018473ffffffffffffffffffffffffffffffffffffffff1673ffffffffffffffffffffffffffffffffffffffff166c010000000000000000000000000281526014018381526020018281526020019450505050506020604051808303816000865af1158015610df5573d6000803e3d6000fd5b5050506040513d6020811015610e0a57600080fd5b810190808051906020019092919050505060019004811515610e2857fe5b06905092915050565b60007f6c00000000000000000000000000000000000000000000000000000000000000827effffffffffffffffffffffffffffffffffffffffffffffffffffffffffffff19161415610ea5577f72000000000000000000000000000000000000000000000000000000000000009050611000565b7f7200000000000000000000000000000000000000000000000000000000000000827effffffffffffffffffffffffffffffffffffffffffffffffffffffffffffff19161415610f17577f6c000000000000000000000000000000000000000000000000000000000000009050611000565b7f7500000000000000000000000000000000000000000000000000000000000000827effffffffffffffffffffffffffffffffffffffffffffffffffffffffffffff19161415610f89577f64000000000000000000000000000000000000000000000000000000000000009050611000565b7f6400000000000000000000000000000000000000000000000000000000000000827effffffffffffffffffffffffffffffffffffffffffffffffffffffffffffff19161415610ffb577f75000000000000000000000000000000000000000000000000000000000000009050611000565b600090505b919050565b6040805190810160405280600081526020016000815250905600a165627a7a723058202703a5c5d642dc3c75c7409f619b4227efd4a9cfebca8fa4f57202cabbf6fddb0029",
  "source": "pragma solidity ^0.4.23;\n\ncontract Matr {\n    struct coord {\n        uint x;\n        uint y;\n    }\n    uint public randSalt = 0;\n    uint256 prize = 0;\n    uint constant size = 11;\n    uint256 constant ticketPrice = 1 ether;\n    mapping(byte => bool )operations;//left  right up down\n    mapping(uint => coord) public phones;\n    uint phoneCount = 0;\n    coord public bob;\n    mapping(address => uint) public steps;\n\n    function Init(uint phoneNum) public{\n        for (uint i =0; i< phoneNum; i++) {\n            uint _x = getRand(size, 0);\n            uint _y =  getRand(size, 0);\n            coord memory _coord = coord({x:_x,y:_y});\n            phones[i] = _coord;\n        }\n        phoneCount = phoneNum;\n        bob.x = (size/2)+1;\n        bob.y = bob.x;\n        operations[\"l\"] = true;\n        operations[\"r\"] = true;\n        operations[\"u\"] = true;\n        operations[\"d\"] = true;\n    }\n\n    function getRand(uint limit, uint luckyNum) private returns (uint){\n        randSalt++;\n        return uint(sha256(now,msg.sender,randSalt, luckyNum))%limit;\n    }\n\n    function toss(uint luckyNum) public payable returns(uint num){\n        require(msg.value == ticketPrice);\n        prize = prize + msg.value;\n        num = getRand(6, luckyNum)+1;\n        steps[msg.sender] = num;\n        return;\n    }\n\n    function move(string op) public returns (bool win){\n        assert(checkOp(op));\n        steps[msg.sender] = 0;\n        assert(makeCoord(op));\n\n        bool success;\n        uint index;\n        (success, index) = gotPhone();\n        if(!success) {\n            return false;\n        }\n        bool finally  = index == phoneCount - 1;\n        clearing(finally);\n        return true;\n    }\n\n    function clearing(bool finally)private{\n        uint256 payPrize = 0;\n        if(finally){\n            payPrize = prize;\n        }else{\n            payPrize = prize * 80 /100;\n        }\n        msg.sender.transfer(payPrize);\n    }\n\n    function makeCoord(string opStr) private returns(bool success){\n        bytes memory op = bytes(opStr);\n        for(uint i = 0; i < op.length; i++){\n            if(op[i] == \"l\"){\n                if(bob.x == 0){\n                    return false;\n                }\n                bob.x--;\n                continue;\n            }\n            if(op[i] == \"r\"){\n                if(bob.x == size-1){\n                    return false;\n                }\n                bob.x++;\n                continue;\n\n            }\n            if(op[i] == \"u\"){\n                if(bob.y == size-1){\n                    return false;\n                }\n                bob.y++;\n                continue;\n            }\n            if(op[i] == \"d\"){\n                if(bob.y == 0){\n                    return false;\n                }\n                bob.y--;\n            }\n        }\n        return true;\n    }\n    function checkOp(string opStr) private view returns (bool){\n        bytes memory op = bytes(opStr);\n        if(op.length > 6 || op.length == 0) {\n            return false;\n        }\n        if(op.length != steps[msg.sender]){\n            return false;\n        }\n        for(uint i=0; i<op.length; i++){\n            if(operations[op[i]] != true){\n                return false;\n            }\n            if(i > 0){\n                if(getRevertOp(op[i]) == op[i-1]){\n                    return false;\n                }\n            }\n\n        }\n        return true;\n    }\n\n    function getRevertOp(byte op) private pure returns(byte){\n        if(op == \"l\"){\n            return \"r\";\n        }\n        if(op == \"r\"){\n            return \"l\";\n        }\n        if(op == \"u\"){\n            return \"d\";\n        }\n        if(op == \"d\"){\n            return \"u\";\n        }\n        return \"\";\n    }\n\n    function gotPhone() private view returns(bool success, uint index){\n        for(uint i = 0; i < phoneCount; i++){\n            if(phones[i].x == bob.x && phones[i].y == bob.y){\n                return (true, i);\n            }\n        }\n        return (false, i);\n    }\n\n}",
  "sourcePath": "/Users/dongwei/Downloads/dev_code/matr0x/contracts/Matr.sol",
  "compiler": {
    "name": "solc",
    "version": "0.4.23+commit.124ca40d.Emscripten.clang"
  },
  "schemaVersion": "3.0.1",
  "updatedAt": "2019-01-24T02:27:41.505Z",
  "devdoc": {
    "methods": {}
  },
  "userdoc": {
    "methods": {}
  }
}